:020000040800F2
:1000000000100020C5040008851E0008851E000899
:10001000851E0008851E0008851E0008851E000834
:10002000851E0008851E0008851E0008851E000824
:10003000851E0008851E0008851E0008851E000814
:10004000851E0008851E0008851E0008851E000804
:10005000851E0008851E0008851E0008851E0008F4
:10006000851E0008851E0008851E0008851E0008E4
:10007000851E0008851E0008851E0008851E0008D4
:10008000851E0008851E0008851E0008851E0008C4
:10009000851E0008851E0008851E0008851E0008B4
:1000A000851E0008851E0008851E0008851E0008A4
:1000B000851E0008851E0008851E0008851E000894
:1000C000851E0008851E0008851E0008851E000884
:1000D000851E0008851E0008851E0008851E000874
:1000E000851E0008851E0008851E0008851E000864
:1000F000851E0008851E0008851E0008851E000854
:10010000851E0008851E0008851E0008851E000843
:10011000851E0008851E0008851E0008851E000833
:10012000851E0008851E0008851E0008851E000823
:10013000851E0008851E0008851E0008851E000813
:10014000851E0008851E0008851E0008851E000803
:10015000851E0008851E0008851E0008851E0008F3
:10016000851E0008851E0008851E0008851E0008E3
:10017000013800D0FCE7704710B5054C237833B93F
:10018000044B13B1044800E000BF0123237010BDED
:1001900080100020000000002422000808B5034B56
:1001A0001BB10349034800E000BF08BD0000000088
:1001B0008410002024220008A3F5803A704700BF75
:1001C000174B002B08BF134B9D46FFF7F5FF00218F
:1001D0008B460F461348144A121A01F0ECFE0E4BE0
:1001E000002B00D098470D4B002B00D098470020E3
:1001F000002104000D000D48002802D00C4800E04A
:1002000000BF01F0DBFD2000290001F0FDFD01F041
:10021000C1FD00BF00000800000000000000000059
:100220000010002080100020A0100020000000001E
:100230000000000008B5002304220221012001F083
:10024000D7FB0422014B1A6708BD00BF00D0035042
:1002500008B5064801F072FD044801F06FFD03483F
:1002600001F06CFD0422024B1A6708BDA086010054
:1002700000F0035010B5274C00F0D6FF01F002FA51
:10028000236F23F0070343F00303236701F041FECC
:10029000214B00209B6ADB015EBF4FF480321F4B75
:1002A0009A62D4F8203123F0070343F00203C4F824
:1002B0002031D4F8283123F0070343F00203C4F8B7
:1002C0002831D4F8403123F0030343F00203C4F88B
:1002D0004031D4F8603123F0030343F00203C4F843
:1002E0006031D4F8403223F0030343F00203C4F832
:1002F0004032D4F8003223F0070343F00203C4F87D
:100300000032D4F8083223F0070343F00203C4F8A4
:10031000083210BD008000500040005A0060005AB2
:1003200007B501A801F0B2FB9DF80530012B14D1EF
:100330009DF804308BB94FF48012114B1149586E5F
:1003400003F580535A664B6B23F0E05343F0406350
:100350004B63C3025CBF0C4B5A6601F0D1FC01F049
:1003600084FD01F055FC01F0B5FC01F079FCFFF7CC
:1003700081FF01F063FC03B05DF804EB01F06ABD9E
:10038000008000500040005A00A000501022024B94
:10039000C3F8A020704700BF00D003501022024BCA
:1003A000C3F8A020704700BF00E0035070B588B0CC
:1003B0003F4D01AC0FCD0FC495E8070084E807005E
:1003C000012401213A2000F0DDFC3A4E01212920D0
:1003D00000F0D8FC384B304601A903938DF8124049
:1003E00001F0B6FB234621460422022001F000FB67
:1003F000022122460846002301F0FAFA234604228D
:100400000321022001F0F4FA0422234611460220BF
:1004100001F0EEFA294D2A4B4FF44870C5F83437F5
:100420004FF00213C5F83037A3F58033C5F83837DD
:100430001C23C5F8203701F081FC1420FFF7AEFF24
:1004400001F07CFC2320FFF7A1FF01F077FCB9212C
:100450003046FFF7A3FF01F08CFDFFF797FF002365
:1004600021461A46022001F0C3FA002302211A464F
:10047000084601F0BDFA234600220321022001F0C4
:10048000B7FA234600220421022001F0B1FA3046D7
:1004900001F032FB00212920C5F83417C5F83017C8
:1004A000C5F83817C5F8201700F06CFC08B070BD0F
:1004B000E01F000800C0055000127A0000C0035081
:1004C0000200030008B500F02DF8124B12498B42D0
:1004D00012D30020114B12498B4218D3FFF770FE44
:1004E000186850F82240586840F822400132986855
:1004F0008242F5D30C33EAE70022F8E71C6844F89F
:10050000220001325C68A242F8D30833E4E70022FB
:10051000F8E700BF2C220008382200083822000823
:100520003822000810B54FF480414FF0FF30114BD6
:10053000114A9A60D3F8882042F47002C3F88820E8
:100540000E4A91660E4901F5005210660D4850663C
:100550000220C3F8D000BFF34F8FBFF36F8F012489
:100560004FF440330848C0F88041D36004600B6109
:1005700010BD00BF00ED00E000000008009000503A
:1005800000800044F7FF370000E100E0014B1868ED
:10059000704700BF04100020084B1B6F03F00703D7
:1005A000022B04D0032B05D0012B05D0FEE7044B12
:1005B00018687047034BFBE7034870470080005002
:1005C0000410002008100020002D310108B5FFF7AD
:1005D000E3FF054B1B6FC3F303330133B0FBF3F0B1
:1005E000024B186008BD00BF0080005000100020C2
:1005F0000048704700B4C404014B1868704700BF3E
:1006000008100020054B1860054B1B6F03F0070313
:10061000032B01D1FFF7DABF704700BF081000209D
:100620000080005000487047002D31014FF0B44366
:100630009868C0F304400C2822D8DFE800F00921B4
:1006400021212121071719211B1D1F000F48704769
:100650009B6803F04073B3F1807F13D0B3F1007F48
:1006600012D00B4A002B08BF10467047094870474C
:10067000094870470948704709487047094870475A
:10068000002070470848704708487047405DC60022
:1006900000093D000024F400C0EA210180BA8C0169
:1006A0000048E801005A620280841E0040420F00A8
:1006B000014B1868704700BF0C10002010B50121D5
:1006C0003A2000F05FFB012304220321002001F007
:1006D0008FF9002001F04CFC0122314B3149C3F865
:1006E00044244FF40022A3F550335A66D1F8FC207D
:1006F0002C4C12F080721EBFD1F8FC3023F08073B6
:10070000C1F8FC302849D1F8803023F0030343F0CE
:100710000203C1F880302AB1D4F8FC3043F0807372
:10072000C4F8FC304FF4607000F058FBD4F8F0309F
:100730001E4A43F00103C4F8F030D4F8FC3000F551
:10074000D52043F08073C4F8FC30194B00F2FC4014
:100750001A60184B0222B0FBF3F0174B01381861F6
:10076000C3F8F0204FF48072C3F804234FF06043C5
:10077000124A0020C3F8B02F114AC3F8802ED3F8D4
:10078000002E42F48072C3F8002EFF2283F820204E
:10079000D3F8002E22F48072C3F8002E10BD00BFE3
:1007A00000D0035000ED00E000800050FF03004047
:1007B000001000E0F8590D00000004E055CEACC573
:1007C00009000100044BD3F88420D206FBD4D3F8EF
:1007D0008400C0F3811070470040005038B5124BC0
:1007E0000546D3F880300C4603F00303022B0BD0F0
:1007F000032B0DD0012B0FD1FFF7CEFE0E2305B139
:10080000286004B1236038BDFFF710FF0723F6E727
:10081000FFF7BCFE0623F2E7044841F2A81101F0FD
:100820003AFB00231846EAE700800050FC1F00084E
:1008300038B51A4B0546D3F820010C4600F00700E6
:10084000062821D8DFE800F028040C1410181C003A
:10085000FFF79CFE052305B1286004B1236038BD75
:10086000FFF7CAFE0323F6E7FFF7E0FE0723F2E7F0
:10087000FFF7D8FE0223EEE7FFF788FE0623EAE73C
:10088000FFF7BAFE0423E6E7054841F2252101F00F
:1008900002FB00231846DEE70123DCE7008000505E
:1008A000FC1F000838B5194B0546D3F828310C4613
:1008B00003F00703013B052B20D8DFE803F0031307
:1008C0001B0F0B17FFF762FE052305B1286004B16B
:1008D000236038BDFFF75AFE0623F6E7FFF7A6FEB2
:1008E0000723F2E7FFF788FE0323EEE7FFF784FE16
:1008F0000423EAE7FFF796FE0223E6E7044841F205
:100900002D0101F0C8FA00231846DEE700800050F0
:10091000FC1F0008F7B50027144B0197D3F880415E
:10092000064604F00304022C0D4614D0032C0DD00F
:10093000012C14D1394601A8FFF77AFF10240EB11B
:10094000019B336005B12C6003B0F0BDFFF76EFE74
:1009500007240190F3E7FFF765FE0190EFE741F20E
:100960007A31034801F097FA3C46E8E700800050EE
:10097000FC1F000837B500230193194B0546D3F837
:1009800020320C4603F00703042B1FD8DFE803F0E6
:1009900025030F141900002101A8FFF783FF12237C
:1009A0000DB1019A2A6004B1236003B030BDFFF796
:1009B0003DFE07230190F3E701F067FA0A23019057
:1009C000EEE7FFF775FE09230190E9E740F6EC71C9
:1009D000044801F060FA0023E2E70123E0E700BFEA
:1009E00000800050FC1F000838B5104B0546D3F8B6
:1009F00040310C4603F00303022B0BD0032B0DD028
:100A0000012B0FD101F041FA0A2305B1286004B18E
:100A1000236038BDFFF74CFE0923F6E701F038FAF2
:100A20000C23F2E701230020EFE700BF0080005015
:100A300037B500230193184B0546D3F860320C46B6
:100A400003F00703013B032B1FD8DFE803F0020E7E
:100A50001914002101A8FFF7EBFE10230DB1019A34
:100A60002A6004B1236003B030BD002101A8FFF764
:100A7000BBFF1123F2E7FFF7D9FD07230190EDE754
:100A8000FFF7D0FD02230190E8E741F2910103480E
:100A900001F001FA0023E1E700800050FC1F00088C
:100AA00037B500230193184B0546D3F894320C4612
:100AB00003F00703013B032B1FD8DFE803F0020E0E
:100AC0001914002101A8FFF7B3FE10230DB1019AFC
:100AD0002A6004B1236003B030BD002101A8FFF7F4
:100AE00083FF1123F2E7FFF7A1FD07230190EDE754
:100AF000FFF798FD02230190E8E741F2C4010348A3
:100B000001F0C9F90023E1E700800050FC1F000854
:100B100073B500240F4B0194D3F87032064603F0EE
:100B20000303012B0D4607D0022B11D041F2EF0138
:100B3000094801F0B0F904E0214601A8FFF754FF8D
:100B400011240EB1019B336005B12C6002B070BD61
:100B50001524F6E700800050FC1F000838B5164B3E
:100B60000546D3F800020C4600F00700042819D807
:100B7000DFE800F020030B0F130001F086F90A23D1
:100B800005B1286004B1236038BDFFF791FD09234A
:100B9000F6E701F07DF90C23F2E7FFF717FD0F23CD
:100BA000800AEDE7054841F2384101F074F900236D
:100BB0001846E5E70123E3E700800050FC1F00082A
:100BC00038B5164B0546D3F808020C4600F007006E
:100BD000042819D8DFE800F020030B0F130001F000
:100BE00054F90A2305B1286004B1236038BDFFF72A
:100BF0005FFD0923F6E701F04BF90C23F2E7FFF75D
:100C0000E5FC0F23800AEDE7054841F2704101F051
:100C100042F900231846E5E70123E3E7008000508E
:100C2000FC1F000838B5104B0546D3F840320C467F
:100C300003F00303022B0BD0032B0DD0012B0FD19C
:100C400001F023F90A2305B1286004B1236038BDFF
:100C5000FFF72EFD0923F6E701F01AF90C23F2E75E
:100C600001230020EFE700BF0080005038B5104B93
:100C70000546D3F860310C4603F00303022B0BD07A
:100C8000032B0DD0012B0FD101F0FFF80A2305B182
:100C9000286004B1236038BDFFF70AFD0923F6E799
:100CA00001F0F6F80C23F2E701230020EFE700BF84
:100CB0000080005010B5B0F5207F2ED009D8B0F5D7
:100CC000007F24D003D868B1B0F5C07F0AD00024DB
:100CD0001BE0B0F5607FFAD1124BD3F88040C4F32B
:100CE000011412E00F4B1C6F230B13F00E0FC4F313
:100CF00003340AD0032C08D0072C06D00F2C04D0C4
:100D000040F27521084801F0C6F8601C10BD054B83
:100D1000D3F89040C4F30464F7E7024B1C6FC4F3AC
:100D20008024F2E700800050FC1F000838B54FF423
:100D30008032104B04469A6600200D46FFF7BAFF3A
:100D400041F671320C4B6043DC69DA635A6804F493
:100D5000803422F440125DB9084988428CBF4FF4B8
:100D600080100020104358600CB10022DA6338BDB7
:100D70000349F2E70090005000000350005A62025D
:100D8000002D310170B5440905460E460ED14FF4D1
:100D900047710F4801F07FF805F01F05AEB104F56B
:100DA0008053012000FA05F51D6070BD012C08D0AC
:100DB000022C08D040F22631054801F06CF80024DE
:100DC000EAE7044CE8E7044CE6E704F50053E8E7FB
:100DD000FC1F0008648000506880005030B585B06A
:100DE000002180280446CDE9001100F09F8035D80D
:100DF0005E2846D85E2844D8DFE800F09E4343438F
:100E000043434343434343434343434343434343B2
:100E10004343434343434343434343439EAA9EAA1E
:100E2000B9B9B9B9B9AAC350D97450AAAAAA434347
:100E3000434343434343AAAAAA7CE3AA434343430D
:100E4000434343434343434343B99E9E9EDE505036
:100E5000E88B61BE4343434343939E00B0F5B06FBC
:100E600000F08F8030D8B0F5207F71D00FD8B0F56A
:100E7000C07F61D0B0F5007F61D0B0F5807F00F019
:100E8000858040F27941544801F005F851E0B0F511
:100E9000607F67D00DD8B0F5407FF2D1FFF796FBA9
:100EA00004464FF42070FFF705FFB4FBF0F0400854
:100EB0003EE0B0F5806F5AD0B0F5A06FE1D10021CF
:100EC0006846FFF757FD34E0B0F5106F74D016D8C0
:100ED000B0F5E06F75D00AD8B0F5C06F67D0B0F547
:100EE000D06FCED100216846FFF738FE21E0B0F583
:100EF000F06FC6D100216846FFF7B8FE19E0B0F5E3
:100F0000406F39D00AD8B0F5206F5FD0B0F5286FA8
:100F1000B7D100216846FFF7FBFD0AE0B0F5486F46
:100F2000AFD100216846FFF7BBFD02E0FFF734FBBD
:100F30000090009805B030BDFFF748FBF8E7FFF7D9
:100F40002BFB05462046FFF7B5FEB5FBF0F0EFE7BB
:100F5000FFF73CFB04464FF42070FFF7ABFEB4FBF9
:100F6000F0F0E5E701A8FFF739FC019DEAE7002171
:100F70006846FFF75DFCDCE700216846FFF792FC5E
:100F8000D7E700216846FFF7C5FCD2E74FF0E02322
:100F900002911B695B0705D5FFF718FB0290029BC6
:100FA0000093C6E703A902A8FFF71EFDF7E700219B
:100FB0006846FFF719FDBCE700216846FFF700FE11
:100FC000B7E700216846FFF72DFEB2E7002168462B
:100FD000FFF72EFDADE700BFFC1F000808B580201D
:100FE000FFF7FCFE034B98429EBF4FF48032024B4A
:100FF0001A6708BD005A620200A000501FB5002306
:10100000B0F5807F019300F0C38064D85D2855D887
:101010004C2806D82D2847D823282BD840F25A51DF
:10102000A5E04D381028F9D801A353F820F000BFEF
:10103000871100081D1000081D1000081D10000871
:10104000391100081D1000081D1000080D120008BD
:1010500057110008FD100008031200081D100008B9
:101060001D1000081D1000081D1000081D100008AC
:101070001712000824380928D0D801A353F820F00B
:1010800087110008871100088711000887110008E0
:10109000871100081D100008771100081D100008B6
:1010A00019110008BD1100083D2800F082803E287B
:1010B000B4D1002001A9FFF7B5FD60E08028ADD1D3
:1010C000574B1B6F03F00703013B032B4DD8DFE8A1
:1010D00003F04A47878FB0F5F06F6AD021D8B0F59A
:1010E000B06F48D00FD8B0F5607F00F0858095D301
:1010F000B0F5806F47D0B0F5A06F8FD1002001A967
:10110000FFF738FC3BE0B0F5D06F57D0B0F5E06F9B
:10111000CFD0B0F5C06F81D1002001A9FFF764FCEA
:101120002DE0B0F5206F71D00BD8B0F5086F4AD024
:10113000B0F5106F7FF472AF002001A9FFF740FDFA
:101140001DE0B0F5406F5CD0B0F5486F63D0B0F5EE
:10115000286F7FF463AF002001A9FFF7D9FC0EE0F0
:10116000052301930BE00223FBE740F2AB412D483E
:1011700000F091FE03E0002001A9FFF7CBFB0198EE
:1011800005B05DF804FB002001A9FFF751FBF6E76D
:1011900002934FF0E0231B695B0705D5FFF716FAB2
:1011A0000D230393039BDCE703A902A8FFF71CFCB4
:1011B000F8E7002001A9FFF759FDE0E7002001A9A9
:1011C000FFF7CCFCDBE7164BD3F8003103F0030349
:1011D000022B07D0032B09D0012B0BD1FFF70CFA00
:1011E0000323BEE7FFF764FA0923BAE700F04BFEDA
:1011F0000823B6E70123B4E7184601A9FFF7EEFA82
:10120000BDE7002001A9FFF74DFBB8E7002001A9C9
:10121000FFF70EFCB3E7002001A9FFF741FCAEE7A2
:1012200000800050FC1F00084FF48012034B5A66E8
:101230004FF48032024B9A62704700BF009000501A
:101240000050005A38B5036804460F2B04D940F605
:1012500046317E4800F01FFE63680F2B04D940F62C
:1012600049317A4800F017FEA3680F2B04D940F6E5
:101270004C31764800F00FFE237B0F2B04D940F64B
:101280004F31724800F007FE637B0F2B04D940F604
:1012900052316E4800F0FFFDA37B3F2B04D940F68E
:1012A00055316A4800F0F7FDE37B3F2B04D940F647
:1012B0005831664800F0EFFD2369032B04D940F64E
:1012C0005B31624800F0E7FD6369032B04D940F607
:1012D0005E315E4800F0DFFDE369032B04D940F680
:1012E00061315A4800F0D7FD8020FFF787FE0328C0
:1012F00000F08A804FF48012554B4FF0A0615A667F
:1013000045F60E03534AC2F88030534B99624FF4AE
:10131000803103F580539962936DD903FCD4916DAC
:1013200011F08041FBD1D4E900031B0543EA0063BF
:10133000E07B0343207B43EA0043607B43EA0033C6
:10134000A07B43EA801313619069D4E904531B0620
:1013500043EA856300F000400343A07EE57E03433B
:10136000207E43EA0043607E43EA00239361E06904
:10137000136A00280CBF0022082223F00F0343EA5F
:10138000000343EA850343EA0203324A334D136202
:101390003BD194F82430916A94F82000DB000D4092
:1013A00043EA401394F821102B4343EA011343F41A
:1013B000803393622A4B916D33EA0101FBD14FF0E8
:1013C0008071254881621369A56823F4700343EA9C
:1013D000055313614FF00043836194F822300BB939
:1013E000204B996294F823303BB94FF480321D4B67
:1013F0009A62184A936D5B00FCD494F825301BB1B7
:10140000144B194AC3F8802038BD022808D1116155
:10141000164891614FF408524FF47F4100F055FD9A
:101420000C4994F822308A6A94F820001B06154073
:1014300043EA401394F824202B4343EAC20394F870
:10144000232043EA02438B62D7E700BFFC1F00085A
:10145000009000500040005A0050005AC7FFFEFEA6
:10146000030001000060005AF1A7FFFF3440005A5A
:10147000014B93F9000070477410002010B54368C9
:101480000446072B04D940F67C512A4800F003FD9E
:10149000A368032B04D940F67E51264800F0FBFCDC
:1014A0002378032B04D94FF45861224800F0F3FC51
:1014B00094F90130002B04DA40F682511D4800F007
:1014C000EAFC4FF400011C4A637851664FF4D15195
:1014D000022002F5B832516218494F2B48604FF094
:1014E000010028BF4F2301F5805148601169C903ED
:1014F000FCD4217843EA01235361D4E901131B0191
:1015000043EA0123617B0B43217B43EA4103936060
:10151000E37BA17B1B0143EA4113617C0B43217CEC
:1015200043EA41035360A37C13B16FF4D153536278
:1015300010BD00BFFC1F00080090005000100250BA
:10154000014B1880704700BF72100020014B1880BB
:10155000704700BF7010002038B5B0F5207F77D0FD
:101560000ED8B0F5007F61D003D890B3B0F5C07F3E
:101570002FD040F2FF21BDE838403D4800F08BBC41
:10158000B0F5607FF5D13B4A4C1ED2F8FC5015F007
:1015900080751EBFD2F8FC3023F08073C2F8FC3097
:1015A000032C04D94FF43871314800F074FC324BED
:1015B000D3F8801021F0300141EA0411C3F8801003
:1015C00035B12C4AD2F8FC3043F08073C2F8FC30BD
:1015D00038BD102901F1FF3404D8284B23FA01F15A
:1015E000CB0704D440F2B621214800F054FC00F0AF
:1015F0007DFC00F089FC4FF48031214B1E4A1967B5
:10160000136F23F4704343EA04331367FEF7DEFFDE
:101610000446FFF7D7F8C0F10201204600F06EFC47
:1016200000F040F8BDE83840FFF7D8BC4C1E1F2C36
:1016300004D940F2F3210E4800F02DFC0E4BD3F8F4
:10164000901021F0F85141EA0461C3F89010BFE70F
:101650004C1E012C04D940F2F921054800F01BFC76
:10166000054B196F21F4806141EA84211967AFE7C6
:10167000FC1F000800ED00E0008000501601010092
:101680000090005008B50121022000F02FF800F072
:101690002DFC00F039FC4FF48032014B1A6708BD75
:1016A0000090005008B54FF4C070FFF797FBBDE8FD
:1016B0000840044988428CBF022101214FF4207068
:1016C000FFF74ABF80F0FA02024A536B0342FCD193
:1016D000704700BF00400950034A0179D36E23F0E0
:1016E00030030B43D3667047004000502DE9F041B2
:1016F0000446264BD3F88420D006FBD4D3F884309C
:10170000C3F381139C423ED0FEF746FF012C0546F1
:101710000BD11F4B984204D940F247711D4800F08D
:10172000BAFB0121284600F0E9FB00F007FC4FF06E
:101730000072194B07465A66204600F006FC4FF42B
:101740008063124E621E9340DFF848803367736EE9
:101750009A0103D4D6F884309B060AD5384600F0A7
:10176000F1FB022C0FD12846BDE8F041002100F02A
:10177000C5BBD6F884309906E9D540F2557140468C
:1017800000F089FBE3E7BDE8F08100BF00400050B6
:10179000005A6202492000080060005007B518B9DD
:1017A0000191FEF7F9FE0199064B1B7843B1064BF8
:1017B000984205D8012003B05DF804EBFFF796BF0F
:1017C0000220F8E79C100020005A620238B54FF062
:1017D0000042284B28495A664AF6CD334D6C0446E0
:1017E00005F001050B6460BB0120FFF76DFF4B683E
:1017F000DA0708D4002415B11F4B204A1A6400F000
:10180000A5FB204638BD1E4B586020461D4C0B6B77
:10181000DB0706D4A04202D14FF0FF34EBE70130E2
:10182000F5E7A0424FF0FF3418BF0024E3E7013290
:101830000B6B13F0080307D08242F8D16FF001045C
:10184000D9E700220F48F3E78242F7D020210C4A63
:1018500091620121A2F5805251600749094A886AC4
:10186000800603D49342E9D00133F8E79342C1D113
:10187000E4E700BF00900050004009503254FFFFE1
:101880000060095040420F0038B54FF00042164B3F
:1018900001465A664AF6CD33144C154A656C2364EA
:1018A00043780B205B0043F00103D363FFF70CFF89
:1018B00063688A7823F4F87343EA02136360CA7892
:1018C0004B7943EA0223A3600A798B7943EA022326
:1018D00023610878FFF77AFFEB0744BF054B2364C9
:1018E00000F034FB012038BD00900050004009504A
:1018F000004000503254FFFF70B50F28044604D951
:1019000040F6E351134800F0C6FA4FF00042124B84
:1019100012495D6E03F580535A664AF6CD334E6C1C
:1019200080200B64FFF7D0FE0B6A23F00F030F2C0F
:1019300094BF234343F00F030B62F30744BF084BEC
:101940000B64002DA2BF4FF00042064B5A6600F018
:10195000FDFA70BD49200008008000500040095089
:101960003254FFFF00A0005038B50D460446B0B118
:10197000012803D0022812D0032803D13F23EB40D3
:10198000DB0704D440F22D41064800F084FA3020F1
:1019900001214443044B01FA05F51D5138BD40F2C5
:1019A000FF33ECE79620000840D0035038B50D46D1
:1019B0000446B0B1012803D0022812D0032803D175
:1019C0003F23EB40DB0704D440F2FE31064800F031
:1019D00062FA302001214443044B01FA05F51D5100
:1019E00038BD40F2FF33ECE79620000840E003509A
:1019F0002DE9F0410D46174698460446002835D09B
:101A0000012803D0022831D0032803D13F23EB4023
:101A1000DB0704D44FF4B0711A4800F03CFA37B138
:101A200029462046B8F1000F23D0FFF79DFF0F2174
:101A3000072D04EB440688BFA5F108034FEA0616FC
:101A4000114895BFAB009B0004360C3607FA03F231
:101A50009940304400F07BFA97B929462046B8F106
:101A6000000F09D0BDE8F041FFF77EBF40F2FF3321
:101A7000CDE7FFF79BFFDAE7BDE8F041FFF796BF40
:101A8000BDE8F081E420000830C003504FF48032FC
:101A9000064B5A6603F5E6239B69C3F385128270F1
:101AA00003F03F021B0B4270037070470090005020
:101AB00070B506460C46154622B940F28E210C48F8
:101AC00000F0E9F924B94FF42070FFF787F90446D4
:101AD0006D00013CB4FBF5F4064B250213EA042328
:101AE00004D040F2B321024800F0D5F9F56170BD91
:101AF00032210008070080FF10B5124B04469842BF
:101B000004D040F24241104800F0C5F9012104F52B
:101B10008053596040F6AA6341F2050263610023D5
:101B20000A48A360E365E26004F500522361E361C3
:101B3000E36490640348A365844204BF236563653E
:101B4000516010BD00C0055032210008FFFF0100A8
:101B500038B52D4B044698420D4604D040F2693109
:101B60002A4800F098F92046FFF7C6FF0122A97B1A
:101B700004F580535A602A8AA368002914BF4FF4E1
:101B80008061002142F0010213432A7D0B43002AA9
:101B900014BF4FF000520022A360A3681343A36058
:101BA000AB7C5BB1184B9C4202BFEA7CA3F51033BF
:101BB000C3F8C821E36D43F08003E3652B7B204627
:101BC000D5E9011243F48053E360FFF771FF6B7BAB
:101BD0000BB1102363616B7D1BB1A36843F48033A9
:101BE000A360AB7D1BB1A36843F40043A360EB7D0E
:101BF0002A7E1B07120503F0E04302F4E0021343C0
:101C0000A3652B78636138BD00C005503221000800
:101C100007B5094B18689A889B7900906846ADF81B
:101C200004208DF80630FFF72FFE0920FFF764FE31
:101C3000002003B05DF804FB8121000813B50024E7
:101C4000064A6846536F43F00103536700948DF8CA
:101C50000440FFF741FD204602B010BD0040005097
:101C600030B58BB06C46174D0FCD0FC40FCD0FC4E0
:101C700095E8030084E80300134BD3F84C211203CA
:101C800018D4D3F85041E4B28DF81940FFF7F0FBB7
:101C9000204480F308008DF818000C48FEF7B2FCD1
:101CA0006846FFF7CFFA4FF4FA70FFF74FFC0020B9
:101CB0000BB030BD064B1C884FF6FF739C4208BF2B
:101CC0005F24E1E7882100080080E00FC01753027D
:101CD0000001E00F30B587B0084D01AC0FCD0FC447
:101CE0002B6801A823602C238DF80530FFF7C6FB75
:101CF0006420FFF725FC002007B030BDB0210008AC
:101D000010B56FF0040250210A480B4C12F0800FFE
:101D1000D3B21BBF03F00F03043BA3181B1802F13F
:101D200001020CBF83F8001319764C2AEED1002073
:101D300010BD00BF00ED00E000E100E010B504467A
:101D4000FEF744FC4FF47A729042B0FBF2F105D2F8
:101D50003621BDE810400C4800F09DB80B4BB3FB9A
:101D6000F1F30B49884201D93C21F2E702FB04F070
:101D7000B0FBF3F0022806D9BDE810400323B0FB06
:101D8000F3F0FEF7F5B910BDC421000840420F0082
:101D9000E7CD9A3B08B5074B044613B1002100E09C
:101DA00000BF054B1868836A03B19847204600F0CE
:101DB00029F800BF000000002022000870B50D4D7A
:101DC00000260D4C641BA410A64209D10B4D002621
:101DD0000B4C00F0F9F8641BA410A64205D170BDAD
:101DE00055F8043B01369847EEE755F8043B0136B9
:101DF0009847F2E778100020781000207810002033
:101E00007C100020FEE700BF08B500F0BCF8FEF72C
:101E100011FA00F0C5F8FEF71BFAFAE700F011B866
:101E200008B5FEF74BFCBDE8084000F022B800F012
:101E300006B87047704770477047704770470F206B
:101E4000704708B50023042219460120FFF7D0FD92
:101E5000002008BD08B501213A20FEF793FFFFF7E7
:101E6000DDFFBDE80840FEF7A1BA01213A20FEF7E8
:101E700089BF08B5082000F00FF8BDE80840082029
:101E800000F016B8FEE7002070474FF4004070479E
:101E90004FF47A707047FEE74FF060420123D2F8AA
:101EA000001E03FA00F00843C2F8000E002070473D
:101EB0004FF060410122D1F8003E02FA00F023EA1F
:101EC0000003C1F8003E0020704770B50546144677
:101ED0000E4600F033F8296881EA040202EA06049B
:101EE0004C402C60BDE8704000F02CB808B5FEF7FF
:101EF0007FFBBDE808400021FEF718BF0029CCBFDA
:101F000001210021FEF712BF02214FF42070FFF7DC
:101F100023BB10B5FEF75AFB0446FEF753FCC0F195
:101F200002012046FFF7EAFF01210020FFF736FCFF
:101F3000FFF7B8FBBDE81040FFF750B8EFF3108093
:101F400072B6704700B962B670477047704770B597
:101F5000054614460E46FFF7F1FF296881EA0402A0
:101F600002EA06044C402C60BDE87040FFF7EABF6F
:101F7000704783695A06FCD5C16383699B06FCD50B
:101F8000406AC0B2704708B5FEF7CAF9FFF748FFCC
:101F9000FFF74DFFFFF74DFFBDE80840FFF74ABFD1
:101FA00008B5FFF748FFFFF747FFFFF746FFBDE81B
:101FB0000840FFF743BF02440346934200D17047F5
:101FC00003F8011BF9E70000F8B500BFF8BC08BC36
:101FD0009E467047F8B500BFF8BC08BC9E467047E7
:101FE000050000000000000040420F000501000055
:101FF000000000000000000000000000433A2F55E0
:10200000736572732F4877646F6E2F53696D706CB0
:10201000696369747953747564696F2F53444B73A2
:102020002F6765636B6F5F73646B5F322F706C61DA
:1020300074666F726D2F656D6C69622F7372632F9A
:10204000656D5F636D752E6300433A2F557365723E
:10205000732F4877646F6E2F53696D706C69636975
:10206000747953747564696F2F53444B732F67658C
:10207000636B6F5F73646B5F322F706C6174666F3C
:10208000726D2F656D6C69622F7372632F656D5F62
:10209000656D752E6300633A5C75736572735C6879
:1020A00077646F6E5C73696D706C69636974797362
:1020B000747564696F5C73646B735C6765636B6F85
:1020C0005F73646B5F325C706C6174666F726D5CC1
:1020D000656D6C69625C696E635C656D5F67706994
:1020E0006F2E6800433A2F55736572732F487764DB
:1020F0006F6E2F53696D706C696369747953747571
:1021000064696F2F53444B732F6765636B6F5F7305
:10211000646B5F322F706C6174666F726D2F656DCA
:102120006C69622F7372632F656D5F6770696F2EC4
:102130006300433A2F55736572732F4877646F6E4F
:102140002F53696D706C6963697479537475646930
:102150006F2F53444B732F6765636B6F5F73646BB3
:102160005F322F706C6174666F726D2F656D6C6974
:10217000622F7372632F656D5F75736172742E6366
:1021800000010310010109030B0000000C00000016
:1021900003000000000020200000000002000000FA
:1021A0003C3C3C000000000000000000000000007B
:1021B00001260000040000000000000000010000F3
:1021C00000000000433A2F55736572732F487764FF
:1021D0006F6E2F53696D706C696369747953747590
:1021E00064696F2F53444B732F6765636B6F5F7325
:1021F000646B5F322F706C6174666F726D2F7365E4
:1022000072766963652F7564656C61792F7372638B
:102210002F736C5F7564656C61792E63000000003C
:04222000101000207A
:0822240094DFFF7F01000000C0
:0C222C00382200080010002020000000F4
:10223800C0EA2101C0EA2101C01753020080000052
:102248000000000000000000000000000000000086
:102258000000000000000000000000000000000076
:102268000000000000000000000000000000000066
:102278000000000000000000000000000000000056
:102288000000000000000000000000000000000046
:102298000000000000000000000000000000000036
:1022A800FFFFFFFF280000009D01000879010008DA
:04000005080004C526
:00000001FF
